{
    "contractName": "Calculator",
    "abi": [
        {
            "inputs": [],
            "stateMutability": "nonpayable",
            "type": "constructor"
        },
        {
            "inputs": [],
            "name": "DivisionByZero",
            "type": "error"
        },
        {
            "inputs": [],
            "name": "Unauthorized",
            "type": "error"
        },
        {
            "anonymous": false,
            "inputs": [
                {
                    "indexed": false,
                    "internalType": "int256",
                    "name": "a_",
                    "type": "int256"
                },
                {
                    "indexed": false,
                    "internalType": "int256",
                    "name": "b_",
                    "type": "int256"
                },
                {
                    "indexed": false,
                    "internalType": "int256",
                    "name": "result_",
                    "type": "int256"
                }
            ],
            "name": "Addition",
            "type": "event"
        },
        {
            "anonymous": false,
            "inputs": [
                {
                    "indexed": false,
                    "internalType": "int256",
                    "name": "a_",
                    "type": "int256"
                },
                {
                    "indexed": false,
                    "internalType": "int256",
                    "name": "b_",
                    "type": "int256"
                },
                {
                    "indexed": false,
                    "internalType": "int256",
                    "name": "result_",
                    "type": "int256"
                }
            ],
            "name": "Division",
            "type": "event"
        },
        {
            "anonymous": false,
            "inputs": [
                {
                    "indexed": false,
                    "internalType": "int256",
                    "name": "a_",
                    "type": "int256"
                },
                {
                    "indexed": false,
                    "internalType": "int256",
                    "name": "b_",
                    "type": "int256"
                },
                {
                    "indexed": false,
                    "internalType": "int256",
                    "name": "result_",
                    "type": "int256"
                }
            ],
            "name": "Multiplication",
            "type": "event"
        },
        {
            "anonymous": false,
            "inputs": [
                {
                    "indexed": false,
                    "internalType": "int256",
                    "name": "a_",
                    "type": "int256"
                },
                {
                    "indexed": false,
                    "internalType": "int256",
                    "name": "b_",
                    "type": "int256"
                },
                {
                    "indexed": false,
                    "internalType": "int256",
                    "name": "result_",
                    "type": "int256"
                }
            ],
            "name": "Subtraction",
            "type": "event"
        },
        {
            "inputs": [
                {
                    "internalType": "int256",
                    "name": "a",
                    "type": "int256"
                },
                {
                    "internalType": "int256",
                    "name": "b",
                    "type": "int256"
                }
            ],
            "name": "add",
            "outputs": [
                {
                    "internalType": "int256",
                    "name": "result_",
                    "type": "int256"
                }
            ],
            "stateMutability": "nonpayable",
            "type": "function"
        },
        {
            "inputs": [],
            "name": "admin",
            "outputs": [
                {
                    "internalType": "address",
                    "name": "",
                    "type": "address"
                }
            ],
            "stateMutability": "view",
            "type": "function"
        },
        {
            "inputs": [
                {
                    "internalType": "int256",
                    "name": "a",
                    "type": "int256"
                },
                {
                    "internalType": "int256",
                    "name": "b",
                    "type": "int256"
                }
            ],
            "name": "divide",
            "outputs": [
                {
                    "internalType": "int256",
                    "name": "result_",
                    "type": "int256"
                }
            ],
            "stateMutability": "nonpayable",
            "type": "function"
        },
        {
            "inputs": [
                {
                    "internalType": "int256",
                    "name": "a",
                    "type": "int256"
                },
                {
                    "internalType": "int256",
                    "name": "b",
                    "type": "int256"
                }
            ],
            "name": "multiply",
            "outputs": [
                {
                    "internalType": "int256",
                    "name": "result_",
                    "type": "int256"
                }
            ],
            "stateMutability": "nonpayable",
            "type": "function"
        },
        {
            "inputs": [
                {
                    "internalType": "int256",
                    "name": "a",
                    "type": "int256"
                },
                {
                    "internalType": "int256",
                    "name": "b",
                    "type": "int256"
                }
            ],
            "name": "subtract",
            "outputs": [
                {
                    "internalType": "int256",
                    "name": "result_",
                    "type": "int256"
                }
            ],
            "stateMutability": "nonpayable",
            "type": "function"
        }
    ],
    "bytecode": "608080604052346026575f80546001600160a01b031916331790556102c1908161002b8239f35b5f80fdfe6080806040526004361015610012575f80fd5b5f3560e01c9081633c4308a81461020357508063a5f3c23b1461019c578063b93ea81214610134578063f59842361461007e5763f851a44014610053575f80fd5b3461007a575f36600319011261007a575f546040516001600160a01b039091168152602090f35b5f80fd5b3461007a5761008c36610275565b5f549091906001600160a01b0316330361012657811561011757600160ff1b81145f198314166101035760408051828152602081810185905293909205908201819052907fe9479c6bb5e1e4c2351d99cb77912f5844d9642b4e908cc31331b80d329ecf1c9080606081015b0390a1604051908152f35b634e487b7160e01b5f52601160045260245ffd5b6323d359a360e01b5f5260045ffd5b6282b42960e81b5f5260045ffd5b3461007a5761014236610275565b90818103905f831281831281169082841390151617610103576040805191825260208281019490945281018290527fd897d548d80194b8226579c303f7f2d2225ccff91c49cd446b756ba321a82cb79080606081016100f8565b3461007a576101aa36610275565b90818101908282125f8212908015821691151617610103576040805191825260208281019490945281018290527f4b7f160e6c35d5003fec87ccf7c325b03b1ba82d70044115c9c04d3383ff56c49080606081016100f8565b3461007a5761021136610275565b909182820291905f8412600160ff1b8314166101035783830582148415171561010357806100f8847f69da57f79c89f814d1e68c0fc03620e2cd6c9dc14aa865742971dd73c414b96f94602097846040919493926060820195825260208201520152565b604090600319011261007a57600435906024359056fea264697066735822122083c9962245a8757866532adfdbd0c631054cc1c0cc744e1ddc75142c220a0c0a64736f6c63430008220033",
    "sourcePath": "/home/monti/git/web3/calculator/src/Calculator.sol",
    "compiler": {
        "name": "solc",
        "version": "0.8.34+commit.80d5c536"
    },
    "functionHashes": {
        "add(int256,int256)": "a5f3c23b",
        "admin()": "f851a440",
        "divide(int256,int256)": "f5984236",
        "multiply(int256,int256)": "3c4308a8",
        "subtract(int256,int256)": "b93ea812"
    },
    "gasEstimates": {
        "creation": {
            "codeDepositCost": "141000",
            "executionCost": "24430",
            "totalCost": "165430"
        },
        "external": {
            "add(int256,int256)": "1907",
            "admin()": "2364",
            "divide(int256,int256)": "4093",
            "multiply(int256,int256)": "1912",
            "subtract(int256,int256)": "1932"
        }
    }
}